:100000002BC600005AC6000058C6000056C60000A5
:1000100054C6000052C6000050C600004EC6000084
:100020004CC600004AC6000048C6000046C6000094
:1000300044C600000C94A03440C600003EC6000038
:100040003CC600000C94ED2438C6000036C6000003
:100050000C94312732C6000030C600000C94FF34E7
:100060002CC600000C945D2E0C94932E26C6000026
:1000700024C6000022C6000020C600001EC60000E4
:100080000C9419251AC6000018C6000016C60000F8
:1000900014C6000012C6000010C600000C940D2902
:1000A0000CC600000AC600000C94452506C60000D8
:1000B00004C6000002C6000000C600000C947125B2
:1000C000FCC50000FAC50000F8C50000F6C5000038
:1000D000F4C50000F2C50000F0C50000EEC5000048
:1000E000ECC5000046364B3650365A366436DD369F
:1000F0006E3676367E36883692369C36AB36B536D8
:10010000DD36BF36C936D33600370337F236F6361A
:10011000FC363A3707370B371137153719371F3782
:10012000233727373A372D37313735374E414E4948
:100130004E495459494E46CDCCCC3D0AD7233C17A5
:10014000B7D13877CC2B329595E6241FB14F0A00F2
:100150000020410000C84200401C4620BCBE4CCAE2
:100160001B0E5AAEC59D7400000000003E5B4F5B45
:100170003E3E6B4F6B3E1C3E7C3E1C183C7E3C184A
:100180001C577D571C1C5E7F5E1C00183C1800FF2E
:10019000E7C3E7FF0018241800FFE7DBE7FF30485C
:1001A0003A060E2629792926407F050507407F0556
:1001B000253F5A3CE73C5A7F3E1C1C08081C1C3E4D
:1001C0007F14227F22145F5F005F5F06097F017F3B
:1001D000006689956A606060606094A2FFA29408DE
:1001E000047E040810207E201008082A1C08081C21
:1001F0002A08081E101010100C1E0C1E0C30383E61
:100200003830060E3E0E06000000000000005F00C1
:10021000000007000700147F147F14242A7F2A128D
:100220002313086462364956205000080703000073
:100230001C2241000041221C002A1C7F1C2A0808A5
:100240003E080800807030000808080808000060B8
:10025000600020100804023E5149453E00427F40A4
:100260000072494949462141494D331814127F1003
:1002700027454545393C4A4949314121110907364D
:1002800049494936464949291E00001400000040EA
:1002900034000000081422411414141414004122E4
:1002A000140802015909063E415D594E7C12111293
:1002B0007C7F494949363E414141227F4141413E8F
:1002C0007F494949417F090909013E414151737FF5
:1002D0000808087F00417F41002040413F017F081E
:1002E0001422417F404040407F021C027F7F04086F
:1002F000107F3E4141413E7F090909063E4151219F
:100300005E7F09192946264949493203017F0103C5
:100310003F4040403F1F2040201F3F4038403F6348
:100320001408146303047804036159494D43007FA2
:100330004141410204081020004141417F04020173
:100340000204404040404000030708002054547815
:10035000407F284444383844444428384444287F63
:10036000385454541800087E090218A4A49C787FBD
:100370000804047800447D40002040403D007F1088
:1003800028440000417F40007C047804787C080405
:1003900004783844444438FC1824241818242418B9
:1003A000FC7C08040408485454542404043F4424A6
:1003B0003C4040207C1C2040201C3C4030403C44C1
:1003C000281028444C9090907C4464544C4400087D
:1003D00036410000007700000041360800020102AB
:1003E00004023C2623263C1EA1A161123A40402073
:1003F0007A385454555921555579412254547842EC
:10040000215554784020545579400C1E52721239AF
:100410005555555939545454593955545458000068
:10042000457C410002457D420001457C407D121122
:10043000127DF0282528F07C545545002054547C2A
:10044000547C0A097F4932494949323A4444443A82
:10045000324A4848303A4141217A3A4240207800B5
:100460009DA0A07D3D4242423D3D4040403D3C2458
:10047000FF2424487E4943662B2FFC2F2BFF09299C
:10048000F620C0887E090320545479410000447D41
:10049000413048484A32384040227A007A0A0A728B
:1004A0007D0D19317D2629292F2826292929263035
:1004B000484D4020380808080808080808382F1058
:1004C000C8ACBA2F102834FA00007B000008142AA8
:1004D000142222142A14085500550055AA55AA556D
:1004E000AAFF55FF55FF000000FF00101010FF008D
:1004F000141414FF001010FF00FF1010F010F0147F
:100500001414FC001414F700FF0000FF00FF141483
:10051000F404FC141417101F10101F101F141414CF
:100520001F00101010F0000000001F101010101F0E
:1005300010101010F010000000FF1010101010101C
:10054000101010FF10000000FF140000FF00FF005B
:10055000001F10170000FC04F414141710171414D3
:10056000F404F40000FF00F714141414141414F726
:1005700000F7141414171410101F101F141414F47F
:10058000141010F010F000001F101F0000001F14C6
:10059000000000FC140000F010F01010FF10FF1419
:1005A0001414FF141010101F00000000F010FFFFC3
:1005B000FFFFFFF0F0F0F0F0FFFFFF000000000091
:1005C000FFFF0F0F0F0F0F3844443844FC4A4A4ACC
:1005D000347E02020606027E027E026355494163B2
:1005E0003844443C04407E201E2006027E020299CC
:1005F000A5E7A5991C2A492A1C4C7201724C304A65
:100600004D4D303048784830BC625A463D3E4949ED
:1006100049007E0101017E2A2A2A2A2A44445F4495
:100620004440514A444040444A51400000FF0103C5
:10063000E080FF000008086B6B083612362436068F
:100640000F090F06000018180000001010003040BD
:10065000FF0101001F01011E00191D1712003C3C83
:100660003C3C00000000002200FF210000010307C5
:100670000F1F3F7F0080C0E0F0F8FCFEDB40A4A627
:100680002EAF2000A1C8D300408DAED580A80000B9
:10069000600000000000000000000000000000E01A
:1006A0000000000000000000000000000001E00069
:1006B00000000000000000000000000001F0000049
:1006C000000000000000000000000003F000000037
:1006D0000000000000000000000007F00000000023
:1006E00000000000000000000007F800000000000B
:1006F00000000000000000000FF800000003C00030
:100700007E000001E0007F0FF800000003C000FE43
:10071000000001E000FFEFF800000003C000FE0051
:100720000001E000FFFFF800000003C000F000003F
:10073000000F007FFE7FC0000003C000F00000003B
:100740000F003FFE7FF83FF1FBCFFCFEF3BC3DEF17
:10075000E01FFE7FFF7FFBFFDFFEFEFFBC3DEFE003
:100760001FC6FFFF7FFBFFDFFEFEFFBC3DEFE00F7C
:10077000E3C7FE787BC3DE1EF0FFBC3DEF0007FF42
:1007800087FC787BC3DE1EF0F83C3DEF0001FFFFE5
:10079000F0007BC3C01EF0F03C3DEF0001F37FE0B2
:1007A0003FFBC3CFFEF0F03C3DEF0003E33F807F13
:1007B000FBC3DFFEF0F03C3DEF0007E73C00787B39
:1007C000C3DE1EF0F03C3DEF0007FFBE00787BC3A8
:1007D000DE1EF0F03C3DEF0007FFFE00787BC3DE3D
:1007E0001EF0F03C3DEF000FFFFE007FFBFFDFFE41
:1007F000F0F03FFDEFE00FFFFF007FFBFFDFFEF0BB
:10080000F03FFDEFE00FF9FF003E79F9CF9EF0F0E9
:100810001F3DE7E01FF1FF000000000000000000A6
:100820000000001F80FF007FFFFFFFFFFFFFFFFFB3
:10083000FFE01C007F007FFFFFFFFEB46D888D1876
:10084000E000001F007FFFFFFFFE95AD7DB577E064
:1008500000000F007FFFFFFFFEA5AD9D8D19E0009A
:100860000006007FFFFFFFFEB5ADEDB57EE00000A6
:100870000000000180000000000000000000038074
:1008800000000000000000000007C00000000000A1
:100890000000000007C00000000000000000000F82
:1008A000C00000000000000000001FE00000000089
:1008B00000000000001FE000000000000000000039
:1008C0003FE00000000000000000003FF0000000DA
:1008D0000000000000007FF0000000000000001F8A
:1008E000F87FF0000000000000003FFE7FF00000F5
:1008F00000000000003FFF7FF0000000000000004B
:100900001FFFFBE0000000000000000FFFF9FFC028
:100910000000000000000FFFF9FFF80000000000D9
:100920000007FFF1FFFF00000000000003FC73FF61
:10093000FF80000000000001FE3FFFFF800000007C
:10094000000000FF1E0FFF000000000000007FFEFF
:100950001FFC000000000000003FFFFFF800000047
:10096000000000000FDFFFE0000000000000001F9B
:1009700019FFC0000000000000003F3CFF00000025
:1009800000000000007E7CF8000000000000000075
:100990007FFE7C0000000000000000FFFFFC000064
:1009A000000000000000FFFFFE000000000000004B
:1009B00000FFFFFE0000000000000001FFEFFE004E
:1009C00000000000000001FFCFFE0000000000005A
:1009D0000003FF07FE0000000000000003FC07FE0C
:1009E0000000000000000003F003FE000000000013
:1009F0000000018000FE0000000000000000000078
:100A00007E000000000000000000003E000000002A
:100A10000000000000000C00000000000007800043
:100A2000FC000003C0000000078001FC000003C0C0
:100A3000000000078001FC000003C00000000780E8
:100A400001E00000001E000000078001E00000003F
:100A50001E007FE3F79FF9FDE7787BDFC0FFF7FF1C
:100A6000BFFDFDFF787BDFC0FFF7FFBFFDFDFF7817
:100A70007BDFC0F0F787BC3DE1FF787BDE00F0F75D
:100A800087BC3DE1F0787BDE0000F787803DE1E048
:100A9000787BDE007FF7879FFDE1E0787BDE00FF5B
:100AA000F787BFFDE1E0787BDE00F0F787BC3DE132
:100AB000E0787BDE00F0F787BC3DE1E0787BDE008C
:100AC000F0F787BC3DE1E0787BDE00FFF7FFBFFD7C
:100AD000E1E07FFBDFC0FFF7FFBFFDE1E07FFBDF71
:100AE000C07CF3F39F3DE1E03E7BCFC000000000FF
:100AF00000000000000000FFFFFFFFFFFFFFFFFFFF
:100B0000FFC0FFFFFFFFFD68DB111A31C0FFFFFFD1
:100B1000FFFD2B5AFB6AEFC0FFFFFFFFFD4B5B3B66
:100B20001A33C0FFFFFFFFFD6B5BDB6AFDC00200F5
:100B3000000A0B02090C0D0E080703040100000057
:100B400000000000000000000000000000000000A5
:100B50000000000000000000000000121110000062
:100B60000000000000000000000000000000000085
:100B70000000000000010210202008081020401092
:100B80002040800201020108040201010204081051
:100B9000204080804020100804020180040201806F
:100BA0004020100804020108040201010204081098
:100BB000204080010204081020408005050505073B
:100BC0000508080808020202020A0A0808040404C8
:100BD00004010101010101010103030303030303F4
:100BE00003040707070C0C0C0C0C0C0C0C02020283
:100BF0000206060606060606060B0B0B0B0B0B0B76
:100C00000B000020002300260029002C002F0032BA
:100C10000000010000030106010901000022002577
:100C20000028002B002E00310034000201000005D6
:100C30000108010B0100002100240027002A002DDB
:100C4000003000330001010000040107010A010027
:100C5000E009382BC52E3D0A11241FBECFEFD1E28B
:100C6000DEBFCDBF00E00CBF13E0A0E0B2E0E8EED5
:100C7000FEE700E00BBF02C007900D92AC36B10753
:100C8000D9F726E0ACE6B3E001C01D92A53AB20761
:100C9000E1F716E0CBE2D6E000E006C021970109BB
:100CA000802FFE010E94163BC832D10780E0080762
:100CB000A9F70E94F42E0C94633FA2C9CF92DF9251
:100CC000EF92FF920F931F93E82FF92F05C0015069
:100CD00011092109310961F1908196239417B9F323
:100CE00005C0015011092109310911F190819623A4
:100CF0009413F7CFC12CD12CE12CF12C0AC08FEF2B
:100D0000C81AD80AE80AF80A0C151D052E053F0571
:100D100079F080818623841791F36C2D7D2D8E2DA3
:100D20009F2D1F910F91FF90EF90DF90CF9008952E
:100D300060E070E080E090E01F910F91FF90EF90F5
:100D4000DF90CF9008950F9326E040E855E260E0F1
:100D500070E08FEC95E00E94F82D01E021E04CE37B
:100D600062E087E993E00E9426140E94FB2687ED4B
:100D700093E00E94D82067E384E893E00E949D18E6
:100D800020E042E060E18CE693E00E94961E6AE07B
:100D900070E087E694E00E94652666E070E08BE5EF
:100DA00094E00E94652661E08CE00E943B3761E0A0
:100DB0008DE00E943B3761E089E00E943B3760E0B4
:100DC00082E00E943B3760E08AE20E943B3760E0AD
:100DD0008BE20E943B3760E08CE20E943B3760E090
:100DE0008DE20E943B3760E08EE20E943B3760E07C
:100DF0008FE20E943B3760E080E30E943B3760E077
:100E000081E30E943B3761E084E00E943B3760E071
:100E100087E00E943B3761E083E00E943B3761E05E
:100E20008EE10E943B3761E086E00F910C943B37E6
:100E30000F931F930E94493500915F041091600445
:100E40002091610430916204DC01CB01801B910B85
:100E5000A20BB30B009126021091270220912802C9
:100E60003091290280179107A207B30770F10E9401
:100E7000493560935F04709360048093610490939C
:100E8000620480915E048823C1F02AEF30E040E0E4
:100E900050E06CEA7DE089E00E94E13060E971E0B9
:100EA00080E090E00E947A352AEF30E040E050E0A8
:100EB00068EB7BE089E00E94E13010925E046FE510
:100EC00070E087E694E00E94A02660915E0481E0D5
:100ED00068278CE00E94773760915E048DE01F9157
:100EE0000F910C94773787E993E00E94081461E032
:100EF00087E993E00E949F11E7E9F3E081E090E049
:100F0000938B828B918B808B158614861786168621
:100F10006BE272E0CF010E94682F60E472E087E923
:100F200093E00E94682F66E572E087E993E00E94F3
:100F30004D2F409122025091230260912402709122
:100F4000250221E030E087E993E00E94E03063E68B
:100F500072E087E993E00E94682F66E672E087E915
:100F600093E00E944D2F40E060E084E893E00E940F
:100F7000EF19AB01BC0121E030E087E993E00E946A
:100F8000E03063E672E087E993E00E94682F60E456
:100F900072E087E993E00E94682F64E772E087E9D6
:100FA00093E00E944D2F40911E0250911F026091CC
:100FB0002002709121022AE030E087E993E00E944C
:100FC000D12F65E872E087E993E00E94682F67E817
:100FD00072E087E993E00E944D2F60E084E893E09F
:100FE0000E94831AAB01BC0120E030E087E993E066
:100FF0000E94E03065E872E087E993E00E94682F84
:1010000060E472E087E993E00E944D2F87E993E066
:101010000E948D178CE693E00E94771E40E060E00E
:101020008CE693E00E947D1E65E574E08CE693E01B
:101030000E943F2F40E06CE08CE693E00E947D1E12
:1010400069E972E08CE693E00E944D2F41E060E098
:101050008CE693E00E947D1E6EE972E08CE693E0E0
:101060000C94682FCF92DF92EF92FF92CF93DF9391
:1010700000D000D0CDB7DEB736DF40E060E084E8D6
:1010800093E00E94EF196B017C012DEC3CEC4CE4E9
:101090005EE360912202709123028091240290917C
:1010A00025020E943C2B9B01AC01C701B6010E94A6
:1010B000872C87FD0CC06FEF70E083E00E94203624
:1010C00060E08EE10E94773764E670E054C040E053
:1010D00060E084E893E00E94EF19209122023091B1
:1010E000230240912402509125020E94872C87FD03
:1010F00019C060E084E893E00E94831A6B017C01D0
:1011000060911E0270911F02809120029091210235
:101110000E94D72B9B01AC01C701B6010E94872C0E
:1011200087FF27C040E060E084E893E00E94EF1969
:101130006B017C012DEC3CEC4CE45EE360912202FF
:101140007091230280912402909125020E943B2BF2
:101150009B01AC01C701B6010E94A02B18167CF0C0
:1011600060E070E083E00E94203661E08EE10E9442
:10117000773764EB70E08BE594E00E94A02660E096
:1011800084E893E00E94831A6B017C0160911E0247
:1011900070911F0280912002909121020E94D72B12
:1011A0009B01AC01C701B6010E94872C87FD06C0D8
:1011B00068E270E08BE594E00E94A02687EE93E061
:1011C0000E94BB1D882309F475C0823481F118F593
:1011D0008A3209F468C0813409F067C085E594E07B
:1011E0000E94463A609351047093520480935304D2
:1011F00090935404609322027093230280932402FC
:10120000909325026EE573E085E594E00E94033932
:101210006FEF70E02AC0833461F1843409F045C077
:101220006EE573E085E594E00E94033943C085E5EF
:1012300094E00E94463A6093510470935204809364
:101240005304909354040E94A42B60931E02709345
:101250001F0280932002909321026EE573E085E5E2
:1012600094E00E94033960E070E086E00E9420363E
:1012700021C02091590430915A042150310940E095
:1012800050E065E574E0CE0101960E94DE39BE01B2
:101290006F5F7F4F85E594E00E94F838CE0101969C
:1012A0000E943F3807C06EE201C0682F85E594E0D8
:1012B0000E94AD3926960FB6F894DEBF0FBECDBFA3
:1012C000DF91CF91FF90EF90DF90CF900895CF9274
:1012D000DF92EF92FF92CF93DF9300D000D0CDB793
:1012E000DEB760E084E00E94773782E090E00E9401
:1012F000B33561E084E00E9477378AE090E00E9495
:10130000B33560E084E00E94773720E432E44FE0B8
:1013100050E061E087E00E94CD3760934D04709308
:101320004E0480934F04909350042AE330E040E051
:1013300050E00E94FA3ACA01B90130934C0420935C
:101340004B042F3131057CF54AE0CE0101960E9415
:10135000433960EB72E0CE0101960E949F39CE01C5
:1013600001960E94323A6B017C01BE016F5F7F4F94
:101370008FEC95E00E94582F20914B0430914C0443
:10138000032E000C440B550B68EB7BE089E00E94B8
:10139000E130B601DD0C880B990B0E947A35CE0145
:1013A00001960E943F3826960FB6F894DEBF0FBE16
:1013B000CDBFDF91CF91FF90EF90DF90CF90089558
:1013C0008F929F92AF92BF92CF92DF92EF92FF9255
:1013D0000F9387E694E00E949D258BE594E00E94A0
:1013E0009D256EE573E085E594E00E94A93884E0D0
:1013F000E82E04E026E032E04AE052E06EE072E0DF
:1014000087EE93E00E94DB1A44E365E387ED93E007
:101410000E94B91F90EA892E96E8992EAA24A394D7
:10142000B12C20E8C22E2AE1D22E26E0E22EF12CA9
:1014300029E735E040E460E887E993E00E9465121F
:1014400026E04BE062E084E893E00E947C183BE1F8
:10145000C32E4AE1E42E09E128E147E166E18CE68A
:1014600093E00E94301F0F91FF90EF90DF90CF909C
:10147000BF90AF909F908F90089587E993E00E946E
:10148000AF1285E594E00C943F38EF92FF921F93E2
:10149000CF93DF93CDB7DEB72C970FB6F894DEBFAE
:1014A0000FBECDBF0E9449356093630470936404FE
:1014B000809365049093660487ED93E00E94F8237F
:1014C000882309F490C087ED93E00E94541F811196
:1014D00006C087ED93E00E94F823811184C06EE579
:1014E00073E0CE0107960E94A93810E08091D903DD
:1014F000181790F5812F90E09C0129523C4F7901FB
:10150000F9018381803118F062EB72E002C06FEA6A
:1015100072E0CE0101960E94A938BE016F5F7F4F35
:10152000CE0107960E949939CE0101960E943F385C
:1015300040E1F7016381CE0101960E941839BE0196
:101540006F5F7F4FCE0107960E949939CE010196B9
:101550000E943F381F5FCACFCE0107960E94213AF2
:101560002B853C8541E050E0BE01695F7F4FCE0195
:1015700001960E94DE3964EB72E0CE0101960E9472
:10158000C039182FCE0101960E943F382AEF30E073
:1015900040E050E01123F1F068EB7BE089E00E942D
:1015A000E13060E971E080E090E00E947A352AEF56
:1015B00030E040E050E06CEA7DE089E00E94E130FC
:1015C00081E080935E0460E070E087E694E00E9432
:1015D000A02605C068EE73E089E00E94E130CE01EC
:1015E00007960E943F382C960FB6F894DEBF0FBEC8
:1015F000CDBFDF91CF911F91FF90EF90089545DF10
:1016000017DC30DD64CE20910105222399F04FB71D
:10161000F89420910105213059F42DB32093FF0453
:101620003DB320910005209523232DBB4FBF02C061
:101630004093FF048CBD9DBD0895809101058823D2
:1016400061F09FB7F894209101058091FF0421304B
:1016500019F48DBB9FBF08958FBF089580E090E07F
:10166000089508952F923F924F925F926F927F92CA
:101670008F929F92AF92BF92CF92DF92EF92FF92A2
:101680000F931F93CF93DF9300D000D0CDB7DEB779
:101690002C017E836D836A015901C801FC82EB82B3
:1016A0004801841A950A97FE03C091948194910889
:1016B00035012D813E81621A730A77FE03C0719451
:1016C00061947108681479045CF43A2D2B2D5C0147
:1016D000832F922F3D812E81DE82CD82C32ED22E8A
:1016E000AD81BE81AA16BB065CF43C2D2D2D6C018C
:1016F000832F922F3D812E81BE82AD82A32EB22EEA
:1017000085012D813E81021B130B1C012C183D0805
:1017100037FE03C0319421943108780117FF03C0CC
:101720003FEFE31AF30AF594E794C816D9062CF0B4
:101730008FEF9FEF9A83898304C0A1E0B0E0BA8362
:10174000A9832D813E81A216B30624F1D201ED9129
:10175000FC910484F585E02D2B813C81681479048B
:1017600024F44D815E81B60103C0A6016D817E81A6
:10177000C2011995E218F308F7FE06C029813A81E3
:10178000C20ED31EE00EF11E8D819E8101969E83B6
:101790008D83D7CF26960FB6F894DEBF0FBECDBF90
:1017A000DF91CF911F910F91FF90EF90DF90CF903D
:1017B000BF90AF909F908F907F906F905F904F9071
:1017C0003F902F900895DC01ED91FC910084F1850C
:1017D000E02D19940F931F93DC01ED91FC91048C83
:1017E000F58DE02D19951F910F9108950F931F937B
:1017F000DC01ED91FC91068CF78DE02D19951F9180
:101800000F910895EF92FF920F931F93DC01ED91DA
:10181000FC9100A0F1A1E02D19951F910F91FF906F
:10182000EF90089508958F929F92AF92BF92CF92BA
:10183000DF92EF92FF920F931F93CF93DF93EC0110
:101840005B014A0169017801E881F9810284F3852D
:10185000E02D1995C80CD91C860101501109E881A9
:10186000F9810488F589E02D9501A401B501CE0127
:101870001995E881F9810688F789E02DCE01DF917D
:10188000CF911F910F91FF90EF90DF90CF90BF907D
:10189000AF909F908F9019948F929F92AF92BF922A
:1018A000CF92DF92EF92FF920F931F93CF93DF932C
:1018B000EC015B014A016901E881F9810284F38549
:1018C000E02D199595012C0D3D1D21503109E88120
:1018D000F9810488F589E02D78018401A401B5011E
:1018E000CE011995E881F9810688F789E02DCE01AE
:1018F000DF91CF911F910F91FF90EF90DF90CF90EC
:10190000BF90AF909F908F9019944F925F926F927B
:101910007F928F929F92AF92BF92CF92DF92EF927F
:10192000FF920F931F93CF93DF936C012B015A010A
:1019300039014801DC01ED91FC910284F385E02D31
:101940001995E201640C751CD601ED91FC91C61548
:10195000D7055CF40088F189E02D87019401A50189
:10196000BE01C60119952196EFCF0688F789E02DB3
:10197000C601DF91CF911F910F91FF90EF90DF9003
:10198000CF90BF90AF909F908F907F906F905F901F
:101990004F901994EF92FF920F931F93DC011A96C8
:1019A0000D911C911B9718962D913C911997ED91D3
:1019B000FC9100A0F1A1E02D7B0140E050E060E04F
:1019C00070E019951F910F91FF90EF9008958F92FD
:1019D0009F92AF92BF92CF92DF92EF92FF920F93BE
:1019E0001F93CF93DF934C016B015A01E901DC0196
:1019F000ED91FC916217730781F40417150724F425
:101A00008B2D5801042F182F0A191B0998012F5FDD
:101A10003F4F048CF58DE02D12C04017510709F59A
:101A20002617370724F48D2D6901C62FD82F9E0164
:101A30002C193D092F5F3F4F068CF78DE02D870154
:101A4000A501B601C4011995DF91CF911F910F91A6
:101A5000FF90EF90DF90CF90BF90AF909F908F90CE
:101A600008950284F385E02D1995D401ED91FC9140
:101A70000488F589E02D9E01A501B601C4011995E0
:101A8000D401ED91FC910688F789E02DC401DF9126
:101A9000CF911F910F91FF90EF90DF90CF90BF906B
:101AA000AF909F908F9019946F927F928F929F9298
:101AB000AF92BF92CF92DF92EF92FF920F931F935C
:101AC000CF93DF93EC014B015A0169013801E881A2
:101AD000F9810284F385E02D1995E881F981028866
:101AE000F389E02D87019601A501B401CE01199576
:101AF000A501460D571D41505109E881F981028821
:101B0000F389E02D9601B401CE011995E881F981A0
:101B10000088F189E02D9301A501B401CE0119954A
:101B2000C80CD91CB60161507109E881F98100889F
:101B3000F189E02D9301A501CE011995E881F98184
:101B40000688F789E02DCE01DF91CF911F910F918B
:101B5000FF90EF90DF90CF90BF90AF909F908F90CD
:101B60007F906F9019940895FC016370668B848157
:101B7000958126813781613039F0633029F0918772
:101B800080873387228708953187208793878287CC
:101B90000895FC011382128284EC92E09183808389
:101BA0007583648357834683718760875387428731
:101BB000168A158614861786168681E0858B848B97
:101BC0002FEF3FEF338B228B318B208B878B108E47
:101BD000128E118E08953F924F925F926F927F9274
:101BE0008F929F92AF92BF92CF92DF92EF92FF922D
:101BF0000F931F93CF93DF93CDB7DEB72A970FB61E
:101C0000F894DEBF0FBECDBF5C017E836D83588725
:101C10004F8329013701DC01ED91FC910284F385AA
:101C2000E02D1995C801079697FD07969C0193E052
:101C3000359527959A95E1F73A832983812C912C44
:101C4000E12CF12C312C8F8198858E0D9F1D9C836A
:101C50008B83E614F7040CF03DC01A861986A9851B
:101C6000BA85A017B10774F5CD0187709927892B24
:101C700011F0330C0EC0E985FA85F7FD379683E045
:101C8000F595E7958A95E1F7E80DF91DE40DF51D49
:101C9000349037FE11C0D501ED91FC910484F58597
:101CA000E02D96014B815C816D817E8189859A85CD
:101CB000680F791FC5011995A985BA851196BA874C
:101CC000A987CDCFBFEFEB1AFB0A29813A81820E9B
:101CD000931EB9CFD501ED91FC910688F789E02DCF
:101CE000C5012A960FB6F894DEBF0FBECDBFDF91B7
:101CF000CF911F910F91FF90EF90DF90CF90BF9009
:101D0000AF909F908F907F906F905F904F903F909B
:101D100019942F923F924F925F926F927F928F927F
:101D20009F92AF92BF92CF92DF92EF92FF920F936A
:101D30001F93CF93DF93CDB7DEB76B970FB6F894B1
:101D4000DEBF0FBECDBF9B8F8A8F2B015A83498385
:101D5000D22E198708874701AB82DC0159962D9155
:101D60003C915A972115310509F000C118968D91C3
:101D70009C911997681779070CF0E7C11A968D9115
:101D80009C911B97481759070CF0DFC12C2C312C64
:101D9000FB0126E0C29EE00DF11D1124FD87EC87BA
:101DA0001E161F060CF0D1C14A2D50E05B874A87F2
:101DB00083E0440F551F8A95E1F75F874E8789813D
:101DC0009A81840F951F181619060CF0BEC15896FB
:101DD0008C91811104C06FEA6D1508F4D394AA8D1B
:101DE000BB8DED91FC9111970284F385E02DCD011F
:101DF0001995B5E0DB9EC0011124EC2DF0E0F98BC4
:101E0000E88B92012B5F3F4F3B8B2A8B32015D8227
:101E10004C82AC01441955095D8B4C8B7B81672F3B
:101E200070E07F8B6E8B89819A810896998F888F5D
:101E3000EC89FD89E60DF71DE959FE4FD490A98183
:101E4000BA81BF83AE835D01D0FE16C0AA8DBB8D63
:101E5000ED91FC91B1E0CB1209C02B81213031F41E
:101E60000484F585E02D2885398519C00684F78519
:101E7000E02DE884F9841DC0488559854815590529
:101E800011F1AA8DBB8DED91FC91B1E0CB120DC08B
:101E90002B81213051F40484F585E02D9401A501B6
:101EA000B3018A8D9B8D19950EC00684F785E02DB0
:101EB00074010A851B8591014E815F816C817D8152
:101EC0008A8D9B8D1995D6944E815F816E897F890D
:101ED000460F571F5F834E837FEFA71AB70A888D7F
:101EE000998DA816B90609F0AFCFAC81BD81E889FC
:101EF000F989AE0FBF1FBD83AC83FFEF6F1A7F0A56
:101F00002A893B896216730609F092CF4885598564
:101F10004815590509F4F7C0AA8DBB8DED91FC91C8
:101F2000B1E0CB1212C02B81213079F4B2016B5F8A
:101F30007F4F0088F189E02D840128E030E049815D
:101F40005A818A8D9B8D1995DEC06C857D856219BD
:101F500073090684F785E02D74010E851F859101B4
:101F600049815A818A8D9B8D1995CDC0F90134968E
:101F7000E491DE1AF901329685919491B7E0DB9EE7
:101F8000800D911D1124F90125913491398B288BF5
:101F9000FC0125903490FC01329674903196A49007
:101FA000329694903196B49031E03C1518F04B8104
:101FB000423068F0692D092C000C770B7D836C830F
:101FC0008B2D0B2C000C990B9F838E8304C01F82DA
:101FD0001E821D821C82AA8DBB8DED91FC911197F2
:101FE0000284F385E02DCD011995612CD12C812C33
:101FF000FB81EF2FF0E0FB87EA872C2D30E03D8757
:102000002C8749815A814B0D511DB7FC5A955D8B28
:102010004C8BB201690D711D97FC7A957F8B6E8B8D
:102020008A1408F070C0282D30E04E815F81420F85
:10203000531FAA85BB85A49FC001A59F900DB49F87
:10204000900D1124E981FA81E80FF91FFF87EE87CF
:10205000862D912C4C895D89420F531F5B8B4A8BD7
:10206000971408F04DC0BB24B394B80E877041F4A8
:10207000C1010196E889F989E20DF31DD4901C0194
:10208000D7FE3AC051E0C51216C06B81613099F499
:10209000AA8DBB8DED91FC9111970484F585E02DFF
:1020A000288539854A895B896E897F89690D711D0B
:1020B000CD01199521C08C819D81890D911DEC85E3
:1020C000FD858E9FB0018F9F700D9E9F700D112416
:1020D000640D751DAA8DBB8DED91FC911197068441
:1020E000F785E02DE884F9840A851B852C853D85DC
:1020F0004E855F85CD011995DD0C93948B2DB0CF66
:10210000670C83948DCFAA8DBB8DED91FC911197B7
:102110000688F789E02DCD016B960FB6F894DEBFE7
:102120000FBECDBFDF91CF911F910F91FF90EF9028
:10213000DF90CF90BF90AF909F908F907F906F90E7
:102140005F904F903F902F9019946B960FB6F89434
:10215000DEBF0FBECDBFDF91CF911F910F91FF90DA
:10216000EF90DF90CF90BF90AF909F908F907F9037
:102170006F905F904F903F902F9008958F929F9215
:10218000AF92CF92EF92FF920F931F93CF93DF9373
:10219000EC01262F898D9A8D009709F041C06A3095
:1021A00059F41D861C862D898E859F8538E0239FD6
:1021B000800D911D112442C06D3009F4A8C08F8993
:1021C0008823C9F03C898C859D8546E0349F800D2D
:1021D000911D1124488559854817590764F41D86B7
:1021E0001C863D898E859F8548E0349F800D911D1A
:1021F00011249F878E87EA88FB88088919894E8574
:102200005F856C857D85AD88CC88CE0182DD2C898B
:102210008C859D8536E0239F800D911D11243EC045
:102220006A3079F41D861C862D89FC013896E4916C
:102230008E859F852E9F800D911D11249F878E87EF
:1022400066C06D3009F463C0FC01349634916317A5
:1022500008F45DC03296E491E61708F458C0462FA2
:10226000431B342FFC0132968590949047E0349FB5
:10227000800C911C1124F401329634913196E49132
:10228000332311F0E1110DC0F4013496E4912C894F
:102290008C859D85E29F800D911D11249D878C87E3
:1022A00036C0F401359644915F89552319F15C8954
:1022B000E32FF0E0E40FF11D47FDFA955E9FB001BA
:1022C0005F9F700D11244C855D85460F571F6885F3
:1022D00079856417750774F41D861C863D89FC0199
:1022E0003896E4918E859F853E9F800D911D112427
:1022F0009F878E87EA88FB88088919894E855F85C4
:102300006C857D85AD88CC88CE0103DDBDCF81E0B5
:1023100090E0DF91CF911F910F91FF90EF90CF90C0
:10232000AF909F908F900895611101C061E0FC0112
:10233000648B411101C041E0FC01458B0895462F9B
:10234000F3CFFC0177FDB9C08085918568177907C7
:102350000CF0B3C057FDB1C082859385481759076B
:102360000CF008958689823079F484819581DC01AE
:10237000A61BB70BBD016150710986819781DC01F5
:10238000A41BB50BAD010EC0833009F084C06427D7
:102390007527CA018627972768277927468157819D
:1023A000481B590B415051092130310531F048F19A
:1023B0002230310509F44AC00895CA0157FD079635
:1023C0009C01A3E035952795AA95E1F7A481B581F5
:1023D0002A9FC0012B9F900D3A9F900D1124680FEA
:1023E000791F078CF0A1E02DE60FF71F47705527E6
:1023F00081E090E001C0880F4A95EAF79081892B2F
:1024000048C0CA0157FD07969C0193E03595279572
:102410009A95E1F7A481B5812A9FC0012B9F900D69
:102420003A9F900D1124680F791F078CF0A1E02DC1
:10243000E60FF71F4770552781E090E001C0880F35
:102440004A95EAF780959081892323C0CA0157FDF8
:1024500007969C0183E0359527958A95E1F7A4813D
:10246000B5812A9FC0012B9F900D3A9F900D11249A
:10247000680F791F078CF0A1E02DE60FF71F47705A
:10248000552781E090E001C0880F4A95EAF79081D6
:10249000892780830895813009F086CF64277527C6
:1024A000462757276427752784819581DC01A61B61
:1024B000B70BBD016150710977CF08958EBD000043
:1024C0000DB407FEFDCF8EB508954F925F926F92C7
:1024D0007F928F929F92AF92BF92CF92DF92EF92B4
:1024E000FF920F93CF93DF93CDB7DEB73C01290165
:1024F00050E070E04EDB80EF92E0F3019183808347
:10250000148E138E4114510411F0C20102C089E7E8
:1025100095E0F301968F858F10A2178E8FEF84A31D
:1025200085A386A387A300A7C5AAD6AAE7AAF0AE6B
:1025300081AE92AEA3AEB4AE80E586AF17AEDF91AA
:10254000CF910F91FF90EF90DF90CF90BF90AF9021
:102550009F908F907F906F905F904F90089520EFA5
:1025600032E0FC0131832083878D90A1009711F028
:102570000C94CF3B08951F93CF93DF93FC01858D7F
:10258000968D009719F1162FEF0161A1062E000C10
:10259000770B0E94232B8D8D9E8DDC01ED91FC919C
:1025A0000190F081E02D60E019958D8D9E8DDC010C
:1025B000ED91FC910190F081E02D612F19958D8DA9
:1025C0009E8DDF91CF911F910C94362BA5A5B6A5BA
:1025D0009C9183A9809589238C93838D948D892BDD
:1025E00029F0862FDF91CF911F9168CF28E030E04E
:1025F00080E8A1A5B2A591A9462F482319F04C91D6
:10260000942B03C04C91909594239C93A3A5B4A5BF
:102610004C9192A9942B9C93A3A5B4A54C9192A9FB
:10262000909594239C9386952150310911F7DF9161
:10263000CF911F9108951F93CF93DF93EC01162F35
:102640008D8D9E8D009739F04DA95EA96FA978AD4B
:102650000E94162B0FC08B8D9C8D892B21F08EAD87
:102660009FAD0E94030BEFA5F8A990818CA98095DE
:1026700089238083111102C066EA01C067EACE0196
:102680007ADF8D8D9E8D009749F049AD5AAD6BADC7
:102690007CADDF91CF911F910C94162BEFA5F8A97B
:1026A00090818CA9892B80838B8D9C8D892B29F01F
:1026B000DF91CF911F910C941D0BDF91CF911F9152
:1026C0000895BF92CF92DF92EF92FF920F931F93E4
:1026D000CF93DF93EC01B62E072F142F8D8D9E8D97
:1026E000009709F452C069A1062E000C770B0E94D6
:1026F000232B8D8D9E8DDC01ED91FC910190F0815D
:10270000E02D60E01995CB2CD02EEE24E394F12C33
:102710008D8D9E8D112371F1B0E2EB16F104B8F0AE
:102720000E94362B69A1062E000C770B8D8D9E8D95
:102730000E94232B8D8D9E8DDC01ED91FC910190EB
:10274000F081E02D60E01995EE24E394F12C8D8D5D
:102750009E8DF6016491DC01ED91FC910190F08178
:10276000E02D1995BFEFEB1AFB0A1150F6013196D7
:102770006F01CECFDF91CF911F910F91FF90EF901E
:10278000DF90CF90BF900C94362BEDA5FEA59081E5
:102790008BA9809589238083E62EF72E112371F172
:1027A000F70184912B8D3C8D232B31F087DE115066
:1027B000C70101967C01F2CF28E030E040E8E9A5AE
:1027C000FAA599A9582F542319F05081952B03C0CD
:1027D0005081909595239083EBA5FCA550819AA9F3
:1027E000952B9083EBA5FCA550819AA990959523F4
:1027F000908346952150310911F7D9CFDF91CF91C0
:102800001F910F91FF90EF90DF90CF90BF900895B0
:10281000FC01868197819C01295F3F4F37FF02C0F1
:10282000295F3F4F83E0359527958A95E1F78481AD
:102830009581289FA001299F500D389F500D11248C
:1028400060E070E0878D90A10C947E3D8F929F9206
:10285000AF92BF92CF92DF92EF92FF920F931F93AE
:10286000CF93DF93EC01862EB42EA22E902E8F8D67
:1028700098A1892BE9F42E813F81C901079697FD24
:10288000079623E0959587952A95E1F72C813D8160
:10289000AC01429FC001439F900D529F900D1124A7
:1028A0000E94373B98A38F8F892B11F480E084C15D
:1028B000CE01AEDF8E819F816C817D818132910559
:1028C000E4F0AC014054510957FF02C04F5F5F4F25
:1028D000559547956255710977FF02C06F5F7F4F2D
:1028E00075956795CC24C394D12C80E4E82EF12C07
:1028F00002E510E02EE638E01BC0AC014052510961
:1029000057FF02C04F5F5F4F559547956357710959
:1029100077FF02C06F5F7F4F75956795CC24C39496
:10292000D12CA0E2EA2EF12C03E710E02EE836E0ED
:10293000CE0151D98AA28D8D9E8D009799F0B1104C
:1029400007C02E813F812032310521F42CE303C0E2
:102950002B2D01C02DE329A3992009F42AC10E943F
:10296000072B79C061E08EA10E943B3761E08FA107
:102970000E943B378EA1082E000C990BFC01E554F8
:10298000F44FE491F0E0EE0FFF1FE55EF34F259169
:1029900034913EA72DA7FC01EB58F44FE491EBAB2B
:1029A0008FA1082E000C990BFC01E554F44FE49123
:1029B000F0E0EE0FFF1FE55EF34FA591B491B8ABC9
:1029C000AFA7FC01EB58F44FE491ECAB8C91E82BF2
:1029D000EC938B8D9C8D892B31F0992009F43BC0B1
:1029E0000E94FB2638C061E08CA10E943B3761E069
:1029F0008DA10E943B378CA1082E000C990BFC0185
:102A0000E554F44FE491F0E0EE0FFF1FE55EF34F65
:102A1000259134913AA729A7FC01EB58F44FE49192
:102A2000E9AB8DA1082E000C990BFC01E554F44F85
:102A3000E491F0E0EE0FFF1FE55EF34FA591B49136
:102A4000BCA7ABA7FC01EB58F44FE491EAAB8C9127
:102A5000E095E823EC93AA20F1F088A587FD1BC040
:102A600061E00E943B3761E088A50E94773761E012
:102A700070E080E090E00E947A3560E088A50E94D6
:102A800077376AE070E080E090E00E947A3561E09C
:102A900088A50E9477378D8D9E8D009739F04DA9BE
:102AA0005EA96FA978AD0E94162B0FC08B8D9C8DEF
:102AB000892B21F08EAD9FAD0E94030BEFA5F8A9E5
:102AC00090818CA980958923808344E06AE876E030
:102AD000CE01F7DD6E816150CE014DDD44E066E848
:102AE00076E0CE01EEDD8AA1813011F460E101C013
:102AF00064E1CE0140DD44E062E876E0CE01E1DD54
:102B00008FE88DAF8C819D818038910571F48E8125
:102B10009F8180349105B9F48AA1813011F48FE945
:102B200001C08FEC8DAF12E10FC08036910559F4D2
:102B30008E819F81409739F48AA1813011F480E120
:102B400001C08FEA8DAF12E06AEDCE0114DD612F76
:102B5000CE0111DD61E8CE010EDD6DADCE010BDDE4
:102B600069EDCE0108DD8AA1813011F462E201C075
:102B700061EFCE0100DD46E06CE776E0CE01A1DD3D
:102B80008D8D9E8D009739F049AD5AAD6BAD7CAD02
:102B90000E94162B0CC0EFA5F8A990818CA9892B57
:102BA00080838B8D9C8D892B11F00E941D0B81E001
:102BB00003C0A11052CF73CFDF91CF911F910F911E
:102BC000FF90EF90DF90CF90BF90AF909F908F904D
:102BD00008950F931F93CF93DF93DC0157FD64C0DB
:102BE00016968D919C911797481759070CF05CC069
:102BF00077FF04C0260F371F60E070E01496CD9178
:102C0000DC911597CB01820F931FC817D9071CF4CD
:102C10009E01261B370B121613060CF045C0FA0155
:102C200057FD3796CF01E3E095958795EA95E1F753
:102C30008C9FF0018D9FF00D9C9FF00D11246E0F65
:102C40007F1F5F96ED91FC919097E60FF71F4770FD
:102C5000552781E090E001C0880F4A95EAF7482F98
:102C60000130110539F078F002301105E9F42E0F2A
:102C70003F1F13C02E0F3F1FE217F307A9F08081FB
:102C8000842B8193F9CF80952E0F3F1FE217F30716
:102C900059F0908198239193F9CFE217F30721F02F
:102CA000808184278193F9CFDF91CF911F910F917C
:102CB0000895EF92FF920F931F93CF93DF93EC0150
:102CC00077FDA5C0EC80FD806E157F050CF09FC0E0
:102CD00057FF04C0240F351F40E050E08E819F81D4
:102CE000FA01E20FF31F8E179F071CF49C01241BAF
:102CF000350B121613060CF08AC0922F842F86957E
:102D0000869586958E9DD0018F9DB00D11246A0FFA
:102D10007B1FAF8DB8A1A60FB71F4770B1F188E038
:102D2000841B482F682F70E0FB01EC58F94FE491A9
:102D3000281798F4621B71092FEF30E002C0359517
:102D400027956A95E2F7E2230130110549F078F002
:102D50000230110509F05BC00EC00130110519F4F5
:102D60008C91E82B0AC00130110508F049C0E095AC
:102D70008C91E82302C08C91E827EC93941708F417
:102D800046C02C813D81A20FB31FE92FE41BE83020
:102D9000F8F00230110561F48E2F9C9190959C9370
:102DA0002C813D81A20FB31F88508830B0F70FC02F
:102DB00081E00115110509F480E081959E2F8C9327
:102DC0002C813D81A20FB31F98509830C0F7E77057
:102DD000EE23E9F0F0E0E459F94FE49101301105F8
:102DE00039F048F00230110591F48C91E82706C0C3
:102DF0008C91E82B03C0E0958C91E823EC9307C0FD
:102E00000230110509F4B7CFAE0DBF1DBECFDF9163
:102E1000CF911F910F91FF90EF9008950F931F9303
:102E2000DC015696EC915697E23061F0E33009F1FF
:102E3000E13079F51496ED91FC911597E41BF50BB3
:102E4000319723C0DC011496ED91FC911597DF01B9
:102E5000A61BB70BBD01DC011696ED91FC911797EF
:102E6000DF01A41BB50BAD0141505109621B730B6F
:102E700010C0FA01DC0116964D915C911797DA01AA
:102E8000A61BB70BBD01621B730BAB01BF0111DFAA
:102E900001C09FDE1F910F9108950F931F93DC01D6
:102EA0005696EC915697E23069F0E33011F1E1303B
:102EB00081F51496ED91FC911597E41BF50BE21B3F
:102EC000F30B23C0DC011496ED91FC911597DF0103
:102ED000A61BB70BBD0161507109DC011696ED917F
:102EE000FC911797DF01A41BB50BAD01421B530BDF
:102EF00010C0FA01DC0116964D915C911797DA012A
:102F0000A61BB70BBD0161507109AB01BF0161DEAA
:102F100001C0CFDE1F910F910895CF92DF92EF9203
:102F2000FF920F931F93CF93DF93EC018D8D9E8DB6
:102F3000009739F04DA95EA96FA978AD0E94162BB4
:102F40000FC08B8D9C8D892B21F08EAD9FAD0E9483
:102F5000030BEFA5F8A990818CA980958923808324
:102F600045E067E676E0CE01ACDB6C816150CE01D6
:102F700002DB2E813F81C901079697FD079623E06A
:102F8000959587952A95E1F72C813D81829F700167
:102F9000839FF00C929FF00C11240F8D18A18D8D42
:102FA0009E8DE00EF11E009709F443C069A1062E24
:102FB000000C770B0E94232B8D8D9E8DDC01ED91F3
:102FC000FC910190F081E02D60E41995680101E029
:102FD00010E08D8D9E8DEC14FD0441F10032110541
:102FE000B0F00E94362B69A1062E000C770B8D8D58
:102FF0009E8D0E94232B8D8D9E8DDC01ED91FC9189
:103000000190F081E02D60E4199501E010E08D8DD4
:103010009E8DF60161916F01DC01ED91FC910190B3
:10302000F081E02D19950F5F1F4FD3CF0E94362BF3
:1030300034C0EDA5FEA590818BA9892B80830E1548
:103040001F0559F1F80181918F012B8D3C8D232BA8
:1030500011F034DAF4CF28E030E040E8E9A5FAA531
:1030600099A9582F542319F05081952B03C05081F2
:10307000909595239083EBA5FCA550819AA9952B5B
:103080009083EBA5FCA550819AA9909595239083F8
:1030900046952150310911F7D2CF8D8D9E8D009725
:1030A00071F049AD5AAD6BAD7CADDF91CF911F9101
:1030B0000F91FF90EF90DF90CF900C94162BEFA51F
:1030C000F8A990818CA9892B80838B8D9C8D892B6D
:1030D00051F0DF91CF911F910F91FF90EF90DF9012
:1030E000CF900C941D0BDF91CF911F910F91FF900A
:1030F000EF90DF90CF900895DC0115966C931597B3
:1031000016964C93169770E0FB01EB58F44FE49140
:103110001796EC931797FB01E554F44F64911896BA
:103120006C93189740E85EE360E070E01D964D9365
:103130005D936D937C93509708951F93CF93DF9386
:10314000EC01162F62E08D810E943B370E944935C9
:10315000DC01CB01805D9740A109B10989879A877D
:10316000AB87BC871A8BDF91CF911F910895CF92C7
:10317000DF92EF92FF921F93CF93DF93EC011F81B9
:10318000662311F0912F01C090E0288530E0220FD6
:10319000331F2F5F334FA0E0B0E0F9014591549108
:1031A000FA0180818123AD0160E070E098130FC0C7
:1031B0001196CD84DE84EF84F8884C155D056E058C
:1031C0007F0558F33FEF2FEF8FEF9FEF03C03A2FAC
:1031D000252FCB01632F722FDF91CF911F91FF908D
:1031E000EF90DF90CF9008958F929F92AF92BF9211
:1031F000CF92DF92EF92FF920F931F93CF93DF93C3
:10320000CDB7DEB7C054D1400FB6F894DEBF0FBEC5
:10321000CDBF8C01F62E0E944935F11016C0F80181
:10322000C184D284E384F4849B01AC012C193D0950
:103230004E095F0969017A0130EDC31637E0D30604
:10324000E104F10410F48189B6C0F8016187728746
:10325000838794871482138212821182108262E023
:1032600085810E943B3761E070E080E090E00E9441
:103270007A3561E0F80185810E943B3760E0F80112
:1032800085810E947737F80186818551823028F444
:103290008CE494E00E94B33506C064E170E080E005
:1032A00090E00E947A3562E0F80185810E943B3708
:1032B000F801828990E00E94B335F89460E0C8017B
:1032C00056DF6F3F7F4F8F4F9F4F21F4F801118AD8
:1032D000789442C061E0C8014ADF6F3F7F4F8F4F53
:1032E0009F4FA1F39E012F5F3F4F79015E013FEB9E
:1032F000A31A3EEFB30A670160E0C80138DFF601A8
:10330000608371838283938361E0C80130DFF601BB
:103310006483758386839783F8E0CF0ED11CCA142B
:10332000DB0451F7789420E030E0F7018080918051
:10333000A280B3804481558166817781FFEF8F162B
:103340009F06AF06BF0631F04F3F8FEF5807680763
:10335000780721F4F801118A80E02DC0F90183E09B
:10336000F595E7958A95E1F7E00FF11F8081880FC9
:1033700084169506A606B70608F4816080832F5F41
:103380003F4FF8E0EF0EF11C2832310571F6F801DD
:10339000248130E04081818190E0840F911D428141
:1033A000840F911D4381840F911D99272817390798
:1033B00089F681E0818BC05CDE4F0FB6F894DEBFEA
:1033C0000FBECDBFDF91CF911F910F91FF90EF9076
:1033D000DF90CF90BF90AF909F908F900895CF9245
:1033E000DF92EF92FF920F931F93CF93DF938C01A5
:1033F000C62F642FF9DE882309F478C0F80186818E
:103400008C3009F445C018F48B30C9F06FC0855179
:10341000823008F06BC0F801D2816D2F6F7770E0B9
:10342000762F66278381682B80E090E00E94D52B61
:103430002DEC3CEC4CEC5DE30E948B2C46C0F8017B
:10344000628170E080E090E00E94D52B6B017C01EE
:10345000F801D381D7FF0AC09B01AC0160E070E0A6
:1034600080E89FEB0E943B2B6B017C016D2F6F70FE
:1034700070E080E090E00E94D72B2DEC3CEC4CEC0F
:103480005DE30E948B2CA70196010E943C2B1FC07C
:10349000F801D28163816F7070E080E090E00E945B
:1034A000D72B2DEC3CEC4CEC5DE30E948B2C6B019C
:1034B0007C016D2F70E080E090E00E94D52B9B0195
:1034C000AC01C701B6010E943C2BD7FD9058CC231C
:1034D00089F026E636E646EE5FE30E948B2C20E07C
:1034E00030E040E052E40E943C2B04C060E070E019
:1034F00080EC9FE7DF91CF911F910F91FF90EF90AC
:10350000DF90CF900895CF92DF92EF92FF92CF930A
:10351000DF93EC0169DE882399F18E818B3080F195
:103520008D3098F08551823058F568817981762701
:103530006727762780E090E00E94D52B2DEC3CECAD
:103540004CEC5DE30E948B2C1FC0698170E080E031
:1035500090E00E94D72B2DEC3CEC4CEC5DE30E94FC
:103560008B2C6B017C01688170E080E090E00E9410
:10357000D72B9B01AC01C701B6010E943C2B04C0B4
:1035800060E070E080EC9FE7DF91CF91FF90EF90DB
:10359000DF90CF900895FC01108213821482089569
:1035A000862F0C94A537862F642F0C947737862F9F
:1035B000642F0C943B374F925F926F927F928F9261
:1035C0009F92AF92BF92CF92DF92EF920F93CF93E1
:1035D000DF93EC016B014A0159010296DCDF8CE1BB
:1035E00093E0998388832E018BE1480E511C3E01A4
:1035F0008DE4680E711CC201CEDF85E0480E511CBF
:1036000046145704C1F7FE01E95AFF4F91828082A8
:103610003296B182A082329600833196E08237974B
:10362000D182C08238968AE090E09183808332967E
:1036300084EF91E091838083339611821082719799
:103640001082118212821382CF59DF4F1882DF91CC
:10365000CF910F91EF90DF90CF90BF90AF909F9060
:103660008F907F906F905F904F9008952F923F9230
:103670004F925F926F927F928F929F92AF92BF9282
:10368000CF92DF92EF92FF920F931F93CF93DF932E
:10369000CDB7DEB728970FB6F894DEBF0FBECDBF0B
:1036A00098878F8310E05C012BE5A20EB11C7C0192
:1036B00037E5E30EF11CD5018C911817B8F0312CC9
:1036C000EF81F885E45AFF4FFC83EB83CF80D884E9
:1036D000F9E5CF0ED11C412C512C320143942F819E
:1036E0003885295A3F4F3E832D8360C0F701A08162
:1036F000B181A10FB11DEF81F88580819181FC011D
:103700002081318142E06C918F819885F901199572
:103710001F5FD1CF022D10E0AD81BE818D919C91B4
:10372000DC01A00FB11F0480F581E02D6C918F8129
:1037300098851995000F111FEF81F885E00FF11F93
:10374000892B09F06FC08781908529813A81822B6E
:10375000932B908787832394D5018C91AF81B88573
:10376000ED91FC912816B0F2D6018D919C91DC016F
:10377000AE0DBF1D0280F381E02D41E06C918F8181
:1037800098851995F60180819181DC01AE0DBF1DF0
:10379000EF81F88580819181FC012081318140E0B9
:1037A0006C918F819885F90119953394AB81BC8117
:1037B0008C913816E0F5E32CF12CF601A081B18153
:1037C000AE0DBF1DEF81F88580819181FC012081C4
:1037D000318141E06C918F819885F9011995F6014D
:1037E000A081B181AE0DBF1DEF81F88580819181EF
:1037F000FC012281338140E06C918F819885F90131
:103800001995D301C201032C04C0880F991FAA1F68
:10381000BB1F0A94D2F79A8389834C0180949094B9
:10382000212C9ACF878190858821992192CF289643
:103830000FB6F894DEBF0FBECDBFDF91CF911F91C1
:103840000F91FF90EF90DF90CF90BF90AF909F903F
:103850008F907F906F905F904F903F902F90089542
:10386000FC0180E090E0248D358D2617370739F074
:10387000019635968A309105B1F78FEF9FEF089545
:10388000DC0125E0629FA00DB11D11245E964C93D2
:103890005E9721E05F962C935F97FC01EF59FF4FF5
:1038A000208131960190F081E02D222331F0309774
:1038B00049F0611107C0DC0102C0309719F05B9636
:1038C0008C9119940895CF92DF92EF92FF920F930B
:1038D0001F93CF93DF93EC01162F042FFC0185E09B
:1038E000689FE00DF11D1124178E868D8130A9F09F
:1038F00030F0823069F18330C9F540E02CC04423B8
:10390000A9F141E0CE01BCDF0E944935C35BDF4F26
:10391000688379838A839B8329C00E944935FE018D
:10392000E35BFF4FC080D180E280F380AB01BC013C
:103930004C195D096E097F09729680819181A0E022
:10394000B0E084179507A607B70710F442E003C05C
:1039500001110CC043E0612FCE01DF91CF911F9187
:103960000F91FF90EF90DF90CF908ACFDF91CF91B2
:103970001F910F91FF90EF90DF90CF9008952F92BD
:103980003F924F925F926F927F928F929F92AF92EF
:10399000BF92CF92DF92EF92FF920F931F93CF933C
:1039A000DF9300D000D0CDB7DEB79E838D837C013E
:1039B0005C0122E3A20EB11CFC018FEF9FEF268D6C
:1039C000211104C0138E958F848F178E3596AE16F5
:1039D000BF06A9F7512C8D819E81855A9F4F9A83EE
:1039E0008983AD81BE81A45ABF4FBC83AB836D80F8
:1039F0007E80B5E56B0E711C85E0282EE981FA8189
:103A00008081581608F057C0412C0D811E81050D8C
:103A1000111D050D111D095F1F4FAB81BC818C90DD
:103A2000481408F046C0F801C080D180042C02C0C0
:103A3000D694C7940A94E2F7FC2DF1703F2E589C5F
:103A400040011124840C911CB4018D819E8108DFFA
:103A500097FD05C0432D682F8D819E8120C0019662
:103A600031F5C0FE24C0ED81FE8160E070E0838D01
:103A7000811117C0D301ED91FC91E80DF91D8081F2
:103A8000269EF001279EF00D11242D813E81E20F2C
:103A9000F31F838F958E848E168E432DC90113DFFD
:103AA00006C06F5F7F4F35966A30710501F743940A
:103AB000B4CF5394A3CF80E0D7015F969C9191112E
:103AC00081E0B5E0EB0EF11CAE14BF04A9F7269619
:103AD0000FB6F894DEBF0FBECDBFDF91CF911F911F
:103AE0000F91FF90EF90DF90CF90BF90AF909F909D
:103AF0008F907F906F905F904F903F902F900895A0
:103B0000CF92DF92EF92FF920F931F93CF93DF93A9
:103B1000EC010E9449358E010F5A1F4FF801C080F9
:103B2000D180E280F380AB01BC014C195D096E09C4
:103B30007F093C9680819181A0E0B0E084179507D1
:103B4000A607B70768F4CE0191DDCE0118DFC82FB4
:103B50000E944935F801608371838283938301C099
:103B6000C0E08C2FDF91CF911F910F91FF90EF90CC
:103B7000DF90CF9008950F931F93CF93DF93EC01C5
:103B80008C010F591F4F81E0F8018083CE01B8DF0F
:103B9000882341F08F8D882329F08E8D813011F498
:103BA0008B8D03C0F801108280E0DF91CF911F91CF
:103BB0000F910895CF93DF93EC0160E08E810E9416
:103BC000773781E090E00E94B33561E08E810E94FA
:103BD000773781E090E00E94B33560E08E810E94EB
:103BE000773784E690E0DF91CF910C94B335CF9294
:103BF000DF92EF92FF920F931F93CF93DF936C01AD
:103C00007C0187E0E80EF11CC0E0D0E0062F10E058
:103C1000B8010C2E02C0759567950A94E2F76170A1
:103C2000F70181917F010E9477372196C430D10539
:103C300079F7C601DF91CF911F910F91FF90EF901F
:103C4000DF90CF90B7CFCF92DF92EF92FF920F939A
:103C50001F93CF93DF936C017C0187E0E80EF11C8A
:103C6000C0E0D0E0062F10E0B8010C2E02C0759520
:103C700067950A94E2F76170F70181917F010E94D4
:103C800077372196C830D10579F7C601DF91CF91FA
:103C90001F910F91FF90EF90DF90CF908BCF1F93EC
:103CA000CF93DF93EC01162F642F8C810E9477371E
:103CB0008D818F3F19F060E00E9477378F85612FEB
:103CC00084FF05C0CE01DF91CF911F91BCCF70E082
:103CD00084E0759567958A95E1F7CE0188DF612FBD
:103CE000CE01DF91CF911F9182CF40E0D8CF61E02C
:103CF000FCDF80ED97E00C94B335FC01443008F014
:103D000043E08389481710F04FEF480FDF01A40FFD
:103D1000B11D54969C91690F6068CF01E6CFFC01FC
:103D20006089262F2460208B6C60DFCFEF92FF929A
:103D30000F931F93CF93DF93EC01423018F08F85E0
:103D400088608F874B8B1C8A80E48D8B6E8B70E034
:103D5000605C7F4F6F8B222329F0413019F48F85EF
:103D600084608F8761E08C810E943B378D818F3F1B
:103D700019F061E00E943B3761E08E810E943B3781
:103D80007E0187E0E80EF11C00E010E08F8584FDE5
:103D900003C084E090E002C088E090E008171907B3
:103DA0004CF461E0F70181917F010E943B370F5F86
:103DB0001F4FECCF80E593EC0E94B33560E08C811F
:103DC0000E94773760E08E810E9477378D818F3F28
:103DD00019F060E00E9477376F8564FD19C063E0D9
:103DE000CE0105DF84E991E10E94B33563E0CE01A5
:103DF000FEDE84E991E10E94B33563E0CE01F7DE97
:103E000086E990E00E94B33562E0CE01F0DE13C097
:103E10006062CE016ADF84E991E10E94B3356F856B
:103E20006062CE0162DF86E990E00E94B3356F8563
:103E30006062CE015ADF6F856062CE0156DF84E09A
:103E4000888BCE016CDFCE0152DF82E0898B66E089
:103E5000CE01DF91CF911F910F91FF90EF9045CF51
:103E6000CF92EF920F93FC011382128286E293E0CD
:103E70009183808364838FEF8583468327830087C4
:103E8000E186C2861386148615861686178620E07C
:103E900041E060E1CF010F91EF90CF9047CF41E03B
:103EA000FEDE81E090E00895BC016E5F7F4FDC0193
:103EB000ED91FC910190F081E02D40E0199591E0A9
:103EC000811190E0892F0895AF92BF92CF92DF9237
:103ED000EF92FF920F931F93CF93DF936C01A42E69
:103EE00079016068B62E80E590E00E94030B60E0E7
:103EF000F60186850E947737AA948B2D0E945E1268
:103F00000023A1F0CFEFD0E001C0CC0F0A95EAF773
:103F10008B2D0E945E122C2F2095F7019081922309
:103F20008C23892BF701808311E001C010E0812FE1
:103F300090E0E701C80FD91F1A1530F48B2D0E94AD
:103F40005E1288831F5FF3CF80E00E945E12888339
:103F500061E0F60186850E947737DF91CF911F914E
:103F60000F91FF90EF90DF90CF90BF90AF900C94A7
:103F70001D0BFC0182E393E0918380836687478772
:103F800008950F931F93CF93DF93EC01062F142F07
:103F900080E590E00E94030B60E08E850E947737F9
:103FA000802F0E945E12812F0E945E1261E08E853A
:103FB0000E947737DF91CF911F910F910C941D0BC9
:103FC000DF92EF92FF920F931F93CF93DF938C01B9
:103FD000C62FF42ED22EE32E80E590E00E94030B34
:103FE00060E0F80186850E9477378C2F0E945E1270
:103FF000CD2DDE2DCE018F0D911D7C01EC16FD0621
:1040000021F089910E945E12F9CF61E0F801868566
:104010000E947737DF91CF911F910F91FF90EF9022
:10402000DF900C941D0B1F93CF93DF93EC01162FA1
:1040300080E590E00E94030B60E08E850E94773758
:10404000812F80680E945E1280E00E945E12182F0D
:1040500061E08E850E9477370E941D0B812FDF91D2
:10406000CF911F9108950F9341112EDF0F91089565
:104070000F931F93CF93DF938C01D62FC42FD3DFE1
:10408000482F4C2B6D2FC801DF91CF911F910F91BD
:1040900078CF0F931F93CF93DF938C01D62FC42F2C
:1040A000C2DFC0954C2F48236D2FC801DF91CF91FF
:1040B0001F910F9166CFCF92DF92EF92FF920F93F5
:1040C0001F93CF93DF93EC016B01F42E890140E045
:1040D00062E057DF44E06AE0CE0153DF40E864E18C
:1040E000CE014FDF96014F2D62E1CE0169DF43E043
:1040F00062E0CE0146DF0E9449356B017C0129E573
:10410000C20ED11CE11CF11C6AE0CE018CDF82FFE3
:1041100010C040E062E0CE0134DF64E4CE0183DF12
:10412000F801808362E4CE017EDFF801818380E0C4
:104130000AC00E94F22E0E9449356C157D058E053D
:104140009F0510F383E0DF91CF911F910F91FF90B6
:10415000EF90DF90CF9008950F931F93CF938C0132
:104160004FE062E00EDFC3E062E370E080E090E0E9
:104170000E947A3562E0C80156DF84FF02C0C15058
:1041800099F7CF911F910F910895CF93DF93EC0191
:1041900068E249DF982F9370933039F0482F4360DD
:1041A00068E2CE01DF91CF91ECCEDF91CF910895FF
:1041B000CF93DF93EC0161E08E850E943B3761E095
:1041C0008E850E9477378F858F3F09F447C060E066
:1041D0000E943B378F850E94A537892B09F03EC08E
:1041E00061E08F850E943B3760E08F850E947737C2
:1041F00082E090E00E94B33561E08F850E947737BE
:1042000062E370E080E090E00E947A3540E064E292
:10421000CE01B7DE40E066E2CE01B3DE46E268E4FE
:10422000CE01AFDE40E864E5CE01ABDE49EA66E5EB
:10423000CE01A7DE43E068E5CE01A3DE48EE6AE5E5
:10424000CE019FDE40E46AE2CE019BDE4DE362E2F6
:10425000CE0197DECE01DF91CF9197CFCE017CDFEB
:10426000D5CF2F923F924F925F926F927F928F9213
:104270009F92AF92BF92CF92DF92EF92FF920F93F5
:104280001F93CF93DF931F921F92CDB7DEB73C01F0
:10429000162F942E2901A114B10419F0F5014081C3
:1042A00001C040E0342EF0E18F9E300C112440E03C
:1042B00062E0C30166DE4FE768E0C30162DE40E80A
:1042C00064E1C3015EDE9201402F62E1C30178DE4A
:1042D000432D6AE1C30155DE412F62E0C30151DE87
:1042E0001C3021F440E86AE1C301C2DE0E94493576
:1042F0001B012C0124E2220E311C411C511C68E0E0
:10430000C30191DE982F992171F480FF02C083E0F0
:104310006AC00E94F22E0E94493562157305840519
:10432000950568F3F4CF6CE0C3017DDE182F83712F
:1043300009F056C0E114F104E1F0C114D104C9F050
:1043400064E1C30170DEF6019081981708F442C061
:104350008083082D9701482F62E1C30184DE68E164
:10436000C30161DE8770A114B10421F0F5018083DF
:1043700001C080E013FD30C0E114F10479F1C114F3
:10438000D10461F1988D992349F1F60140814130C2
:1043900021F4843039F58FEF26C0423018F18111B5
:1043A00021C042509E012F5F3F4FB701C30183DE02
:1043B000811119C0F6018081E80EF11CF7013297D6
:1043C0009081898198130EC0319690818A819813CB
:1043D00009C004C084E007C082E005C080E003C0DB
:1043E00081E001C087E00F900F90DF91CF911F9186
:1043F0000F91FF90EF90DF90CF90BF90AF909F9084
:104400008F907F906F905F904F903F902F90089586
:104410008F92AF92BF92CF92DF92EF92FF920F9363
:104420001F93AF928C2C570168017901042F9B01D7
:1044300040E36CE016DF0F901F910F91FF90EF901B
:10444000DF90CF90BF90AF908F9008952F923F92C2
:104450004F925F926F927F928F929F92AF92BF9294
:10446000CF92DF92EF92FF920F931F93CF93DF9340
:10447000CDB7DEB72C970FB6F894DEBF0FBECDBF19
:10448000413508F000C1342E3B014C0140E86CE19D
:1044900000DE2224239432E0231691F083E02816D4
:1044A000E1F091E02912F3C083E989833320D1F050
:1044B00081E0F3019081953008F480E0B12C17C0C1
:1044C000F5E9F983332081F081E0F30190819830A0
:1044D00008F480E043E0B42E0AC087E9898336E01F
:1044E000B32E04C0B12C02C023E0B22E80E0D32C46
:1044F000F8E0BF9ED0181124D7FCD12C882321F0DE
:1045000098E89B8333E001C032E021E09D2D977055
:1045100009F420E09D2D959595959595290F31F4F9
:10452000882309F48DC038E0D30E8AC0811102C0FF
:1045300094E001C093E0291708F4922FEB2DF0E0EE
:104540003196E60DF71D232F4191A1E0B0E0AC0FAD
:10455000BD1FA20FB11D4C932F5F422F431B491764
:1045600098F3DECF8111D8C09FE19D150CF491C066
:1045700080E2D82E90E79A839B818C8189279D8148
:1045800089279E8189278F839E01285F3F4F47E0BF
:10459000BE016F5F7F4FC4018EDD8111BDC01B86E0
:1045A000E3E0EA87CE0107962C0199E09C87CB8453
:1045B0004C2D4295407F4C0D6AE1C401E2DCA12CF8
:1045C000CE010B967C018E01065F1F4F92014C8538
:1045D000BE016F5F7F4FC4011BDF823009F0C2CF85
:1045E0006CE1C40120DD85FD50C08F7109F480E2CB
:1045F000282F30E04D2DDD0C550B421753070CF0E2
:1046000046C0D82E85958595859591E0980F422FC7
:10461000477081E009F480E0890FE1E0F0E0EC0F01
:10462000FD1FE80FF11D215031092770332781E06C
:1046300090E001C0880F2A95EAF79081892B80834A
:104640008FE18D150CF496CF9D2D97709B878D2D46
:104650008595859585958E5F292FE0E18E9F200DAC
:1046600011242A8321E0911101C020E0280F2C871A
:1046700044244394512C4C0E5D1E480E511CF9E00D
:10468000F81BFA8794CF86E047C082E045C085E0FA
:1046900043C08B818838E9F182E094E0EB2DF0E0B3
:1046A0003196E60DF71D980FA1E0B0E0AC0FBD1FED
:1046B000A80FB11D2C9121938F5F9813F5CF8A8598
:1046C000833019F58B85811120C09E012D5F3F4FEE
:1046D00041E0B201C401EFDC81111EC09B81F201F7
:1046E0008181981314C09C818281981310C08081AD
:1046F00082FF02C02394CFCEF3018387822D880FDF
:10470000820D8F5F808380E007C081E005C087E075
:1047100003C083E093E0C2CF2C960FB6F894DEBFBF
:104720000FBECDBFDF91CF911F910F91FF90EF9002
:10473000DF90CF90BF90AF909F908F907F906F90C1
:104740005F904F903F902F9008954F925F926F929D
:104750007F928F929F92AF92CF92EF92FF920F93A0
:104760001F93CF93DF931F921F92CDB7DEB76A835B
:104770004115510529F1F9016081623008F14901C3
:104780002A013C0140E86CE184DC87E08983A12CAC
:10479000C12CCE0101967C018401920141E0BE0151
:1047A0006E5F7F4FC30134DE81110DC0F401808143
:1047B000823041F481E09981911105C080E003C00D
:1047C00084E001C081E00F900F90DF91CF911F91A5
:1047D0000F91FF90EF90CF90AF909F908F907F9030
:1047E0006F905F904F9008959A01AB0166E2ADCF54
:1047F0000F931F93CF93DF9300D0CDB7DEB78C011B
:1048000082E08B8340E064E2C801BBDB40E066E20B
:10481000C801B7DB46E268E4C801B3DBAE014D5F17
:104820005F4FBE016F5F7F4FC801DEDF982F81E0D1
:10483000992319F0923009F080E00F900F900F90BB
:10484000DF91CF911F910F910895CF92DF92EF9258
:10485000FF920F931F93CF93DF937B016A01082F81
:1048600010E0E801C559DB4F888187FF04C0FB01D8
:104870001182108224C08CE0809F9001819F300DB6
:1048800011248881A901480F511D87FD5A958091F7
:104890006A0490E04817590794F48881A901480FE9
:1048A000511D87FD5A95CA01FA01EE0FFF1F8E0FA9
:1048B0009F1FFC01E159FB4F808186FD19C0888153
:1048C0008F5F88838CE0809F9001819F300D112441
:1048D0008881A901480F511D87FD5A9580916A046E
:1048E00090E048175907BCF488818C3044F113C01C
:1048F0008881280F311D87FD3A95F901EE0FFF1FC2
:104900002E0F3F1FF901E159FB4F808160E08F734B
:104910000E947737D4CFF70180819181049680344B
:104920009C4918F480E49CE904C0F70180819181DE
:104930000496F601918380838FEF888345C0F70149
:10494000408151818881B901680F711D87FD7A9579
:10495000CB01FB01EE0FFF1F8E0F9F1FFC01E159E2
:10496000FB4F81819281840F951FF6019183808393
:104970008881A901480F511D87FD5A95CA01FA0186
:10498000EE0FFF1F8E0F9F1FFC01E159FB4F80812F
:1049900086FF1AC08881280F311D87FD3A95F901DD
:1049A000EE0FFF1F2E0F3F1FF901E159FB4F8081D2
:1049B00061E08F73DF91CF911F910F91FF90EF9086
:1049C000DF90CF900C947737DF91CF911F910F91AB
:1049D000FF90EF90DF90CF9008951F920F920FB647
:1049E0000F9211240BB60F922F933F934F935F9327
:1049F0006F937F938F939F93AF93BF93EF93FF93A7
:104A000048E850E064E870E081E01FDFFF91EF913B
:104A1000BF91AF919F918F917F916F915F914F91D6
:104A20003F912F910F900BBE0F900FBE0F901F90D4
:104A300018951F920F920FB60F9211240BB60F927A
:104A40002F933F934F935F936F937F938F939F9396
:104A5000AF93BF93EF93FF9348E950E064E970E0B0
:104A600082E0F3DEFF91EF91BF91AF919F918F9123
:104A70007F916F915F914F913F912F910F900BBE5E
:104A80000F900FBE0F901F9018951F920F920FB6A8
:104A90000F9211240BB60F922F933F934F935F9376
:104AA0006F937F938F939F93AF93BF93EF93FF93F6
:104AB00048EA50E064EA70E083E0C7DEFF91EF91DE
:104AC000BF91AF919F918F917F916F915F914F9126
:104AD0003F912F910F900BBE0F900FBE0F901F9024
:104AE00018951F920F920FB60F9211240BB60F92CA
:104AF0002F933F934F935F936F937F938F939F93E6
:104B0000AF93BF93EF93FF9348E251E064E271E00B
:104B100080E09BDEFF91EF91BF91AF919F918F91CC
:104B20007F916F915F914F913F912F910F900BBEAD
:104B30000F900FBE0F901F901895FC0190916A0482
:104B40009033A0F481E0890F80936A049083892FC9
:104B500090E0FC01EE0FFF1F8E0F9F1FFC01E1593B
:104B6000FB4F88EB9BE09283818308958FEF8083D6
:104B70000895DF92EF92FF920F931F93CF93DF93ED
:104B8000EC01D62E7A0189018881803308F068C053
:104B900061E08D2D0E943B378881E82FF0E09F0176
:104BA000220F331FE20FF31FE159FB4F9D2D9F731F
:104BB0002081207CD22ED92AD08220E232E02E1908
:104BC0003F0937FF02C02D5F3F4F3595279535953B
:104BD0002795298320E639E0201B310B37FF02C0DF
:104BE0002D5F3F4F35952795359527952A832CE0E6
:104BF000622F0E94CC3A289FB001112440E050E07F
:104C00009B01240F351FF901EE0FFF1F2E0F3F1FD1
:104C1000F901E159FB4F908196FD16C04F5F5F4F40
:104C20004C30510569F7813021F51092800082E007
:104C3000809381001092850010928400B19A809137
:104C40006F00826080936F00E881F0E0CF01880FF1
:104C5000991FE80FF91FE159FB4F80818064808321
:104C60008881DF91CF911F910F91FF90EF90DF909E
:104C70000895823061F41092900080939100109218
:104C800095001092940088BB80937100DDCF833033
:104C900069F41092A00082E08093A1001092A50018
:104CA0001092A40089BB80937200CECF8111CCCF2B
:104CB0001092200182E08093210110922501109230
:104CC00024018ABB80937300BFCF20E639E040E225
:104CD00052E04FCFFC019081903388F5818128E824
:104CE00030E0281B310987FD3395220F331F220F37
:104CF000331F6217730784F0828148E552E0481B36
:104D0000510987FD5395440F551F440F551F9B01B3
:104D1000461757070CF49A0122503109220F331F0E
:104D20004FB7F894892F90E0FC01EE0FFF1F8E0F14
:104D30009F1FFC01E159FB4F328321834FBF089530
:104D4000AF92BF92CF92DF92EF92FF920F931F9399
:104D5000CF93DF93EC01603282E078070CF03FC024
:104D600077FD06C0653B71052CF064EB70E002C076
:104D700060E070E0898128E830E05901A81AB108A4
:104D800087FDB394AA0CBB1CAA0CBB1C0B2C000CFB
:104D9000CC08DD08072E000C880B990B2A8108E54A
:104DA00012E0021B110927FD1395000F111F000FC0
:104DB000111F012E000C220B330B3F932F931F93D7
:104DC0000F9314EBE12EF12C00E010E020E030E036
:104DD000A9010E94FF370F900F900F900F90CE0106
:104DE000DF91CF911F910F91FF90EF90DF90CF90C7
:104DF000BF90AF906FCFCF93CFB7F894809102055B
:104E0000811127C0E0EFFBE08491EAEAFBE0949196
:104E1000E82FF0E0EE0FFF1FEB5CF34FA591B4918C
:104E2000EC91E92321F461E085E30E94773761E0AA
:104E300085E30E943B378CB580618CBD8CB5806466
:104E40008CBD61E084E30E943B3761E083E30E9414
:104E50003B37809102058F5F80930205CFBFCF91D2
:104E600008951F920F920FB60F9211240BB60F9256
:104E70002F933F934F935F936F937F938F939F9362
:104E8000AF93BF93EF93FF93E0910305F091040577
:104E90001995FF91EF91BF91AF919F918F917F9164
:104EA0006F915F914F913F912F910F900BBE0F909B
:104EB0000FBE0F901F9018951092780581E0809397
:104EC00076051092750561E084E10E94773761E014
:104ED00085E10E947737E9EBF0E080818E7F808367
:104EE00080818D7F808388E48093B80085E48093FF
:104EF000BC000895ECEBF0E080818A7B808360E069
:104F000084E10E94773760E085E10C9477379B015C
:104F1000AC0160E074E284EF90E00E94D83ADA01DC
:104F2000C9014097A109B109B695A79597958795AD
:104F30008093B800089540912705262F30E0240F74
:104F4000311D21323105DCF4209178052430C9F47B
:104F5000FC0180E090E0861758F4309127052191FC
:104F6000DC01A75DBA4FA30FB11D2C930196F3CFBF
:104F700080912705680F6093270580E0089581E000
:104F8000089582E0089590936C0580936B050895D1
:104F900090936E0580936D05089585EC8093BC0019
:104FA000109278050895CF93DF9391E09093700568
:104FB000882351F0C091B800D091BA009BDF7CDF0C
:104FC000D093BA00C093B800DF91CF9108954F926B
:104FD0005F926F927F928F929F92AF92BF92CF9289
:104FE000DF92EF92FF920F931F93CF93DF934132A3
:104FF00008F0C5C0122FF42ED72EE62ED82F0E940F
:1050000055354B015C01C0917805CC2311F180919D
:10501000710590917205A0917305B0917405892B6B
:105020008A2B8B2B81F30E9455354090710550904F
:1050300072056090730570907405DC01CB018819CE
:105040009909AA09BB09481659066A067B06D8F6CB
:1050500083C082E080937805009376058FEF80937C
:10506000050510924A05F09249059E2DABE4B5E086
:10507000EE2DFD2D8E2F891B8F1518F481918D93A8
:10508000F9CF1092770590917705DD0FD92BD0934A
:10509000770580917505813089F5109275050E941C
:1050A00055356B017C01809177058093BB00809121
:1050B000710590917205A0917305B0917405892BCB
:1050C0008A2B8B2BA9F00E9455358090710590900A
:1050D0007205A0907305B0907405DC01CB018C19AA
:1050E0009D09AE09BF0988169906AA06BB06A0F15C
:1050F0008091BC0083FDD7CF85EC01C085EE809305
:10510000BC000E9455356B017C01112351F1809147
:105110007805823031F58091710590917205A091EA
:105120007305B0917405892B8A2B8B2B71F30E9428
:1051300055358090710590907205A0907305B090E0
:105140007405DC01CB018C199D09AE09BF098816D5
:105150009906AA06BB06C8F680916F0524DFC5E054
:1051600013C0809105058F3F79F08091050580324D
:1051700041F080910505803331F0C4E005C0C1E005
:1051800003C0C2E001C0C3E08C2FDF91CF911F911B
:105190000F91FF90EF90DF90CF90BF90AF909F90D6
:1051A0008F907F906F905F904F90089585ED8093E2
:1051B000BC008091710590917205A0917305B0912A
:1051C00074050796A11DB11D23E0B695A795979587
:1051D00087952A95D1F72091BC0024FF1BC04091F0
:1051E0007105509172056091730570917405452B9E
:1051F000462B472B81F30097A105B10541F025E32C
:105200002A95F1F700000197A109B109E4CF809137
:105210006F05C9CE1092780508951F920F920FB6B0
:105220000F9211240BB60F922F933F934F935F93DE
:105230006F937F938F939F93AF93BF93EF93FF935E
:105240008091B900887F803609F49DC070F588325E
:1052500009F45CC090F4803109F455C038F4882317
:1052600009F4F3C0883009F44EC0F2C0883109F463
:105270004DC0803209F45EC0EBC0803409F469C0CF
:1052800050F4803309F456C0883309F0E1C08093AC
:10529000050583DEDDC0803509F44FC0883509F48B
:1052A0005DC0883409F0D4C0D2C0883909F4C3C0C5
:1052B000A8F4883709F467C038F4883609F463C065
:1052C000803709F460C0C4C0883809F4B4C080399C
:1052D00009F45FC0803809F0BBC05BC0803B09F4B3
:1052E00082C038F4803A09F466C0883A09F47BC079
:1052F000AFC0803C09F4A3C0883C09F4A0C0883B3F
:1053000009F486C0A5C08091770510C090914A0528
:1053100080914905981770F5E0914A0581E08E0F5C
:1053200080934A05F0E0E55BFA4F80818093BB00F3
:1053300085EC82C0809305058AC0E0914A0581E032
:105340008E0F80934A058091BB00F0E0E55BFA4F39
:10535000808390914A05809149056AC0E0914A0591
:1053600081E08E0F80934A058091BB00F0E0E55B01
:10537000FA4F808380917605811169C081E0809326
:10538000750584EA5DC083E0809378051092060578
:10539000CFCF80910605803208F04DC0E091060520
:1053A00081E08E0F809306058091BB00F0E0E95FFD
:1053B000FA4F8083BDCFF1DD80910605803230F455
:1053C000E0910605F0E0E95FFA4F10826091060572
:1053D00070E0E0916B05F0916C0587E095E0199520
:1053E0001092060535C084E0809378051092280558
:1053F00010922705E0916D05F0916E051995809149
:105400002705811105C081E08093270510922905A9
:10541000E091280581E08E0F80932805F0E0E75D9C
:10542000FA4F80818093BB009091280580912705D9
:10543000981708F47DCF85E88093BC0009C085ECFF
:105440008093BC001092780503C010920505AEDE73
:10545000FF91EF91BF91AF919F918F917F916F914C
:105460005F914F913F912F910F900BBE0F900FBE08
:105470000F901F9018958091AD0590E02091AE059A
:10548000821B910908959091AE058091AD05981702
:1054900050F4E92FF0E0E155FA4F208130E09F5FB2
:1054A0009093AE0502C02FEF3FEFC9010895E09140
:1054B000AE058091AD05E81730F4F0E0E155FA4F04
:1054C000808190E008958FEF9FEF08950895CF9326
:1054D000DF93EC01E0918505F09186053097F1F0BE
:1054E0009091AE058091AD059817C0F090E0292FFE
:1054F00030E02617370754F4DE01A20FB31F4C919A
:10550000D901A155BA4F4C939F5FF1CF1092AE05D0
:105510006093AD05CB01DF91CF911994DF91CF91CD
:105520000895E0918705F0918805309729F0109251
:105530008B0510928A0519940895CF92DF92EF920D
:10554000FF920F931F93CF93DF937C01CB018A01CE
:1055500020918905222389F0EB016B01C40ED51E31
:10556000CC15DD0561F06991D701ED91FC910190B9
:10557000F081E02DC7011995F3CF642FDCDCC80161
:10558000DF91CF911F910F91FF90EF90DF90CF901F
:105590000895CF93DF931F92CDB7DEB76983209133
:1055A00089052223D1F020918A05203240F021E0A4
:1055B00030E0FC013383228380E090E014C08091CE
:1055C0008B05E82FF0E0E457FA4F998190838F5FC5
:1055D00080938B0580938A0504C061E0CE0101961B
:1055E000AADC81E090E00F90DF91CF910895FC015B
:1055F0001382128288EE93E0A0E0B0E0848395836A
:10560000A683B7838CE393E09183808308951092FF
:10561000AE051092AD0510928B0510928A054CDCF8
:1056200081E99AE2B5DC87E69AE2ADCCCB01BA011A
:105630006ECC81E0809389056093AC0510928B0558
:1056400010928A050895F5CF0F93062F21E040911F
:105650008A056CE875E08091AC05B9DC10928B0589
:1056600010928A05109289050F91089561E0ECCFA0
:1056700089E795E0BCCF5058BB27AA270ED00DC1B3
:10568000FED030F003D120F031F49F3F11F41EF42E
:10569000F3C00EF4E095E7FBE9C0E92F0FD180F3EA
:1056A000BA17620773078407950718F071F49EF51F
:1056B00027C10EF4E0950B2EBA2FA02D0B01B901D6
:1056C00090010C01CA01A0011124FF27591B99F078
:1056D000593F50F4503E68F11A16F040A22F232F84
:1056E000342F4427585FF3CF469537952795A795D4
:1056F000F0405395C9F77EF41F16BA0B620B730B7B
:10570000840BBAF09150A1F0FF0FBB1F661F771FEB
:10571000881FC2F70EC0BA0F621F731F841F48F4A0
:10572000879577956795B795F7959E3F08F0B3CF26
:105730009395880F08F09927EE0F97958795089510
:1057400071D008F481E0089504D06894B111D9C0F3
:105750000895BCD088F09F5790F0B92F9927B75182
:10576000A0F0D1F0660F771F881F991F1AF0BA9525
:10577000C9F712C0B13081F0C3D0B1E00895C0C004
:10578000672F782F8827B85F39F0B93FCCF386951B
:1057900077956795B395D9F73EF490958095709578
:1057A00061957F4F8F4F9F4F0895E89409C097FBF5
:1057B0003EF490958095709561957F4F8F4F9F4FE8
:1057C0009923A9F0F92F96E9BB279395F69587952C
:1057D00077956795B795F111F8CFFAF4BB0F11F4EF
:1057E00060FF1BC06F5F7F4F8F4F9F4F16C0882396
:1057F00011F096E911C0772321F09EE8872F762FCC
:1058000005C0662371F096E8862F70E060E02AF00C
:105810009A95660F771F881FDAF7880F96958795F8
:1058200097F90895990F0008550FAA0BE0E8FEEFCD
:1058300016161706E807F907C0F012161306E40754
:10584000F50798F0621B730B840B950B39F40A264D
:1058500061F0232B242B252B21F408950A2609F42B
:10586000A140A6958FEF811D811D089597F99F672F
:1058700080E870E060E008959FEF80EC08950024D8
:105880000A941616170618060906089500240A94A5
:1058900012161306140605060895092E0394000C2B
:1058A00011F4882352F0BB0F40F4BF2B11F460FFBA
:1058B00004C06F5F7F4F8F4F9F4F089557FD9058E3
:1058C000440F551F59F05F3F71F04795880F97FBC4
:1058D000991F61F09F3F79F087950895121613067E
:1058E0001406551FF2CF4695F1DF08C016161706AD
:1058F0001806991FF1CF86957105610508940895E2
:10590000E894BB2766277727CB0197F908958ADFAC
:1059100008F48FEF08950BD0C0CFB1DF28F0B6DFC9
:1059200018F0952309F0A2CFA7CF1124EACFC6DF44
:10593000A0F3959FD1F3950F50E0551F629FF001A2
:10594000729FBB27F00DB11D639FAA27F00DB11DFB
:10595000AA1F649F6627B00DA11D661F829F222784
:10596000B00DA11D621F739FB00DA11D621F839F0B
:10597000A00D611D221F749F3327A00D611D231FE1
:10598000849F600D211D822F762F6A2F11249F572F
:1059900050408AF0E1F088234AF0EE0FFF1FBB1F52
:1059A000661F771F881F91505040A9F79E3F5105F1
:1059B00070F05CCFA6CF5F3FECF3983EDCF38695AA
:1059C00077956795B795F795E7959F5FC1F7FE2B9C
:1059D000880F911D9695879597F908950E94383DF7
:1059E000FC01918D228D892F90E0805C9F4F821B5E
:1059F00091098F7399270895FC01918D828D9817D5
:105A000031F0828DE80FF11D858D90E008958FEFC4
:105A10009FEF0895FC01918D828D981761F0828D22
:105A2000DF01A80FB11D5D968C91928D9F5F9F73D2
:105A3000928F90E008958FEF9FEF0895FC01538DB2
:105A4000448D252F30E0842F90E0821B930B541758
:105A500010F0CF960895019708958CEB9EE2892B64
:105A600039F080E090E0892B19F086D1811125C0B2
:105A700080E090E0892B41F080E090E0892B21F0DC
:105A80000E94000081111CC080E090E0892B41F051
:105A900080E090E0892B21F00E940000811113C06A
:105AA00080E090E0892BA1F080E090E0892B81F0EC
:105AB0000E94000081110AC008950E940000D8CF02
:105AC0000E940000E1CF0E940000EACF0C94000089
:105AD0000895FC01848DDF01A80FB11DA35ABF4FAB
